:020000040800F2
:10000000B00400209D0100087D0200087502000870
:1000100079020008F10100087D06000800000000D8
:100020000000000000000000000000008502000841
:10003000F5010008000000008102000889020008A4
:10004000B7010008B7010008B7010008B7010008B0
:10005000B7010008B7010008B7010008F90100085E
:10006000B7010008B7010008B7010008B701000890
:10007000B7010008B7010008B7010008B701000880
:10008000B7010008B7010008B7010008B701000870
:10009000B7010008B7010008B7010008B701000860
:1000A000B7010008B7010008B7010008B701000850
:1000B000B7010008B7010008B7010008B701000840
:1000C000B7010008B7010008B7010008B701000830
:1000D000B7010008E5030008B7010008250600087D
:1000E000B7010008B7010008B7010008B701000810
:1000F000B7010008B7010008B7010008B701000800
:10010000B7010008B7010008B7010008B7010008EF
:10011000B7010008B7010008B7010008B7010008DF
:10012000B7010008B7010008B7010008B7010008CF
:10013000B7010008B7010008B7010008B7010008BF
:10014000B7010008B7010008B7010008B7010008AF
:10015000B7010008B7010008B7010008B70100089F
:10016000B7010008B7010008B7010008B70100088F
:10017000B7010008B7010008B7010008000000003F
:10018000B7010008B7010008DFF80CD000F018F83C
:1001900000480047810A0008B00400200648804754
:1001A00006480047FEE7FEE7FEE7FEE7FEE7FEE75C
:1001B000FEE7FEE7FEE7FEE78D0200088901000882
:1001C0001CB509480090094801900546009C06E0CE
:1001D000E06840F0010394E8070098471034AC420F
:1001E000F6D3FFF7D5FF0000681200088812000858
:1001F000FEE70000FEE7000080B5022000F09EFB55
:10020000012818BF80BD022000F092FBBDE88040AD
:10021000AFF3008001A000F0FDBF00BF646F776EF8
:100220000000000080B540F6024000F023FE40F6DA
:100230000000C4F2020000210122022300F0D2FBE0
:1002400041F20E1000F016FE0220012100F042FEE5
:1002500002200021012200F015FB022000F068FBC3
:10026000022000F05DFB072002210222BDE8804051
:1002700000F074BCFEE70000FEE70000FEE70000AF
:10028000FEE70000FEE7000000F006BA81B04EF67F
:100290008851CEF200010A6843F6080042F4700269
:1002A000C4F202000A6050F8081C41F0010140F855
:1002B000081C00BF50F8081C8907FBD5016841F0F5
:1002C0008001016000210091009A4F2A06D800BFEA
:1002D000009A01320092009A502AF9D3026842F043
:1002E00090020260009100994F2905D800990131D0
:1002F000009100995029F9D301684FF6FF7221F05F
:100300000301016050F8081CCFF6F662114040F876
:10031000081C50F8081C21F4802140F8081C00211A
:100320000160026843F21002C2F2004240F8042C5D
:10033000416050F8081C41F4803140F8081C4FF629
:10034000FF7100BF50F8082C920303D40029A1F1DB
:100350000101F7D150F8081C8903FBD5826B47F2E5
:10036000000142F08052C4F2000182630A6842F444
:1003700040420A6002680260026842F40042026081
:10038000026842F4A052026045F20842C0F2407294
:1003900040F8042C50F8082C42F0807240F8082CE9
:1003A00050F8082C9201FBD50A6842F480320A60AA
:1003B0004A68D203FCD50A6842F400320A6000BFE2
:1003C0004A689203FCD5016821F0030101600168CD
:1003D00041F00201016000BF01680907FCD501B0CE
:1003E00070470000B0B546F20044C4F20204A4F520
:1003F000AA3540F20431C0F20401284600F0DCFEC8
:10040000012818BFB0BD284600F02CFE204605216B
:1004100000F05AF92046052100F02EFAC0F18001C3
:1004200040F20800C2F200000022425400F0C0F87E
:1004300020460521202200F08FF920460521BDE845
:10044000B04000F04BB900002DE9F0478AB040F60B
:10045000164000F00FFD41F20009C4F2010909F550
:10046000AA352846072100F04FF901AE304600F0CA
:10047000F1F940200790002709F104044FF0010A28
:100480004FF4003828460721324604970194CDF8EE
:1004900008A00597CDF8248000F098F92846072198
:1004A000042200F025F940F6164000F0E3FC28464F
:1004B000052100F029F901AE304600F0CBF940F2F9
:1004C0000800C2F20000CDE903078020CDE908084A
:1004D0002846052132460797CDE9014A059700F0E5
:1004E00075F928460521042200F002F92846052165
:1004F00000F0F4F84FF4406000F0BCFC09F57045E2
:100500002846022101224FF4007300F06BFA2846BE
:10051000002103224FF4007300F08EFA28460721D1
:100520004FF4007200F022FA4FF4406000F0A2FC99
:100530002846022101224FF4806300F053FA284636
:10054000002103224FF4806300F076FA2846072149
:100550004FF4806200F00AFA41F2041000F08AFCC5
:10056000484600F083FD48464FF4E13100F01AFDA3
:100570004846082100F038FE4846802100F0E4FD9E
:100580004846042100F02AFE4846402100F0D2FDF2
:1005900025200021002200F0E1FA48464FF4417185
:1005A00000F0FEFD484600F0D9FD0AB0BDE8F08736
:1005B000007840F29001C2F200010870704700001C
:1005C000002808BF7047B0B546F20044C4F20204E8
:1005D00003460D4620460721002200F0EDF8204694
:1005E00007212A4600F042F92046072100F076F85C
:1005F00020460721202200F0CBF80028F8D0204622
:100600000721202200F0A8F8A4F5AA3420460621EC
:1006100000F0BEFD0028F9D020460621BDE8B0401C
:1006200000F0A2BD70B544F6000440F20435C4F2F7
:100630000004C0F2040505F10111204600F0BCFDE4
:1006400040F2A4060128C2F200060AD1204600F0BA
:1006500009FD3068802824BF0020306030680130F8
:1006600030602046294600F0A7FD012818BF70BD64
:10067000204600F0F7FC0020306070BDFEE700006F
:100680004FF47A71414340F28C00C2F200000160E5
:1006900001680029FCD1704740F2A800C2F20000B6
:1006A000D0E90012013142F10002C0E9001240F22B
:1006B0008C00C2F200000168002908BF7047016881
:1006C000013901607047000001EB410100EBC100FE
:1006D000016921F0010101617047000001EB410156
:1006E00000EBC100016941F00101016170470000A8
:1006F00001EB410100EBC100016921F0606141EAB9
:10070000426101617047000001EB410200EBC2024F
:1007100013694FF03D0C23F00103136100231361B3
:1007200053619361D3611362212353620A1F28BF6F
:10073000D1B201EB410301F002014FF00C024FEA8C
:10074000410138BF082201EB430113580CFA01F1B3
:1007500019431150704700000B1F38BF0B46D9B228
:100760004FEA410151FA83F103F002034FF00C0C00
:100770004FEA430338BF4FF0080C03EB41015CF82C
:10078000003002FA01F119434CF8001070470000E4
:100790000B1F34BF0B460430D9B2490051FA83F124
:1007A00003F002035B00006803EB410102FA01F170
:1007B000084018BF0120704701EB410C2021002A9E
:1007C00008BF1C21084440F83C30704780B501EB5D
:1007D000410100EBC100416A48F23F7321F004017E
:1007E00041621168CFF6FC7381619168C161D16982
:1007F00041610169D2F818E001EA030C116A13693A
:1008000041EA0C0141EA830141EA0E011943016109
:100810005168012907D00029016914BF41F4004142
:1008200041F4007102E0016921F400710161D168B5
:100830000369002923F4806308BF03F58063036123
:1008400051690269002922F4807208BF02F58072A2
:10085000026180BD00210122C0E90012C0E902123C
:10086000C0E90412C0E906110162704701EB4101C1
:1008700000EBC1004261704701EB410100EBC10098
:100880004069704743F6084CC4F2010C5CF8083C20
:10089000012923EA00034CF8083C5CF8043C23EAF5
:1008A00000034CF8043CDCF8003023EA0003CCF8E9
:1008B0000030DCF8043023EA0003CCF8043019D00F
:1008C00021B95CF8081C01434CF8081C022A18D016
:1008D000012A6FEA000118D0002A18BF7047DCF81F
:1008E00000201043CCF80000DCF804000840CCF8ED
:1008F000040070475CF8041C01434CF8041C022AF5
:10090000E6D1DCF80010014302E0DCF800201140E1
:10091000CCF80010DCF804100843CCF80400704751
:1009200043F60041C4F201010A68104308607047B1
:1009300043F61441C4F201010860704743F61441C4
:10094000C4F201010968084018BF01207047000087
:1009500010B582B004468DF807000DF107000121A3
:10096000FFF72EFE204602B010BD0000F0B5D0F813
:1009700020E0D0F824C000230F27002505E000BFA9
:100980000135082D03F104030CD022FA05F6F60711
:10099000F6D007FA03F62EEA060601FA03F446EA51
:1009A000040EEDE7082300240F2504E00133102B8B
:1009B00004F104040CD022FA03F6F607F6D005FA87
:1009C00004F62CEA060701FA04F647EA060CEDE7FE
:1009D000C0F820E0C0F824C0F0BD0000816270477C
:1009E000C16270472DE9F041D0F800E0D0F80CC0AA
:1009F00000244FF00308002605E000BF0136102E4A
:100A000004F1020412D023FA06F7FF07F6D008FA21
:100A100004F72EEA070E01FA04F54EEA050E2CEA59
:100A2000070702FA04F547EA050CE7E7C0F800E01B
:100A3000C0F80CC0BDE8F0810129416814BF99439A
:100A400019434160B0B5D0F808C000214FF0030E43
:100A5000002404E00134102C01F102010CD023FA2F
:100A600004F5ED07F6D00EFA01F52CEA050C02FAB2
:100A700001F54CEA050CEDE7C0F808C0B0BD000078
:100A800040F200444FF4A060C4F2020400F0B8F851
:100A900000F062FAFFF7D8FCFFF7C4FB40F6014014
:100AA00000F0E8F92046012101220423FFF79AFF14
:100AB00020460021032204230025FFF7BDFF204626
:100AC0000421FFF78BFF40F2900641F25D2841F2CE
:100AD000402941F25027C2F20006C0F60008C0F6D5
:100AE0000009C0F6000703E000F094FB357014E045
:100AF00030780328FAD8DFE800F01019230300BF8C
:100B000041F21C0000F0B6F9012000F083F800F07B
:100B100049F900F01BF93846E6E720460421FFF7C3
:100B20005FFF4FF49670FFF7ABFDE1E741F21C0069
:100B300000F0A0F9002000F0FBF84046D4E700BF29
:100B400041F21C0000F096F901204FF440210022F0
:100B500000F070F8FFF79AFB4846C5E74EF60C5CCC
:100B6000CEF2000CDCF8003003F4E063B3F5E06F84
:100B700001D1042328E0DCF8003003F4E063B3F58E
:100B8000C06F01D103231FE0DCF8003003F4E06301
:100B9000B3F5A06F17D0DCF8003003F4E063B3F5D1
:100BA000806F01D101230FE0DCF8003003F4E06333
:100BB000B3F5407F01D1002306E040F20053C0F2BC
:100BC000FA53CCF80030022301FA03FCC3F104030A
:100BD0000F21D94011404EF2001241EA0C01CEF231
:100BE0000002090140EA020383F8001300F01F012C
:100BF000012303FA01F11C2303EAD000815070475E
:100C000040F080604EF60C5140F0FD70CEF20001D5
:100C10000860704720B1012818BF7047082000E025
:100C2000042047F20001C4F200010A681043086082
:100C300070470000B0B547F2000CC4F2000CDCF8BD
:100C400000E04FF2FC33CFF6F37303EA0E03CCF867
:100C50000030DCF80030B1F5402F43EA0003CCF857
:100C600000300DD1DCF8001040F20043C0F20C035C
:100C7000002808BF03F5806341EA0300CCF80000B8
:100C80004EF21000CEF20000D0F8001D40F2940C9D
:100C900041F00401C0F8001D0168C2F2000CCCF85C
:100CA0000010D0F8F01040F2980EC2F2000ECEF80C
:100CB0000010D0F8F43040F29C01C2F200010B6049
:100CC000D0F8F84040F2A003C2F200031C600468B0
:100CD0000425C0F201052C4004604FF63104CFF624
:100CE0007F74C0F870414FF6FF04CBF6FF74C0F874
:100CF00074416FF48054C0F878411AB140BF20BFEE
:100D000020BF00E030BFDCF800200260DEF80020E9
:100D1000C0F8F0200968C0F8F4101968C0F8F8109D
:100D2000D0F8001D21F00401C0F8001DB0BD000086
:100D30004EF61051CEF200010A6822F004020A6059
:100D400008B120BF704730BF7047000047F2000075
:100D5000C4F200000168042241F002010160016850
:100D6000C0F2010241F0040101604EF21000CEF227
:100D70000000D0F8001D41F00401C0F8001D01681A
:100D8000114001606FF00C01C0F870116FF4007138
:100D9000C0F874114FF0FF31C0F87811C0F87C1121
:100DA00030BF704747F20400C4F20000016841F40C
:100DB000807101607047000010B543F60402C4F270
:100DC000020253680146C3F3810342F20040022B42
:100DD000C0F2F40006D0012B1FD141F20020C0F276
:100DE0007A001AE0D2F800C013680CF03F0CC3F38D
:100DF000881E13681468C3F30143640241F200249F
:100E0000C0F27A0458BF0446B4FBFCF4022000EBA5
:100E1000430004FB0EF3B3FBF0F0536811A4C3F3DB
:100E20000313E35C546841F2382CC4F38224C0F607
:100E3000000C1CF804E05268032907D820FA03F3D9
:100E4000DFE801F00F020609184610BD002010BDB2
:100E500023FA0EF010BDC2F342301CF8000023FA52
:100E600000F010BD000000000000000001020304BB
:100E70000607080943F6000300F01F018009C4F2C9
:100E800002034FF0010CC2580CFA01F11143C1509A
:100E90007047000043F6000300F01F018009C4F210
:100EA00002034FF0010CC2580CFA01F122EA0101D1
:100EB000C150704743F6000300F01F018009C4F2DF
:100EC00002034FF0010CC2580CFA01F11143C1505A
:100ED000704700008A08032A88BF70470C2303EA82
:100EE00081010F238B4000FA01FC01EB8200D94302
:100EF000DFE802F002260E1A43F60800C4F20100F1
:100F0000026811400160016841EA0C01016070470C
:100F100043F60800C4F201008268114081608168D4
:100F200041EA0C018160704743F60800C4F20100F9
:100F3000C2681140C160C16841EA0C01C1607047DC
:100F400043F60800C4F20100426811404160416864
:100F500041EA0C014160704740F20400C2F2000017
:100F600000684DF68361C4F21B31A0FB01014FF014
:100F7000FF3000EB9140B0F1807F11D24EF21001B2
:100F8000CEF2000148604EF62350CEF20000F0226F
:100F90000270002207238A600B600270704700BF56
:100FA000FEE70000B0B5044647F2FF70C4F200004F
:100FB0000D4684424FF000000EDC44F6FF31C4F2CF
:100FC00000018C4217DC44F20041C4F200018C4263
:100FD0001DD044F6000116E040F6FF71C4F2010195
:100FE0008C422FDC47F60001C4F200018C420ED087
:100FF00047F6004107E044F60041C4F200018C428C
:1010000005D045F20001C4F200018C4203D1022157
:101010000846FFF7D1FEE168090406D400EB55004D
:10102000B0FBF5F080B2A060B0BD400000EB550011
:10103000B0FBF5F04FF6F0710140C0F342000844F8
:10104000A060B0BD41F20001C4F201018C424FF03A
:101050000301DDD041F20042C4F201029442D7D034
:10106000D9E7000040686FF35F20704710B547F282
:10107000FF71C4F20001884214DC44F6FF31C4F26F
:101080000001884224DC44F20041C4F2000188429D
:101090003CD044F60001C4F20001884249D140F638
:1010A00012043EE040F6FF71C4F2010188421EDCEA
:1010B00047F60001C4F2000188422AD047F60041F9
:1010C000C4F20001884218BF10BD40F61F0428E09A
:1010D00044F60041C4F2000188421DD045F20001EF
:1010E000C4F20001884224D140F6140419E041F210
:1010F0000001C4F20101884211D041F20041C4F262
:101100000101884215D140F605140AE040F61104A9
:1011100007E040F61E0404E040F6130401E040F648
:1011200004142046FFF7C6FE2046BDE81040FFF736
:10113000B1BE10BD426901F0400122F0400242619F
:101140004269114341617047426901F0800122F018
:10115000800242614269114341617047C16841F4B4
:101160000051C1607047000043F20802914206D16D
:10117000D0F8C01021F48071C0F8C010704701F0A1
:101180001F02012303FA02F2D24389090A50704771
:101190008A09105801F01F01C84000F00100704793
:1011A00001F01F0289094FF0010C0B580CFA02F2F2
:1011B0001A430A5070470000C1F3891252F800C068
:1011C0008A0D105801F01F03C1F30441C8402CFAE6
:1011D00003F1084000F0010070470000C26822F0EF
:1011E00004021143C1607047C26822F00802114333
:1011F000C160704702E008C8121F08C1002AFAD176
:1012000070477047002001E001C1121F002AFBD186
:101210007047000010B5044601E0FFF799FB14F891
:10122000010B04490028F8D1BDE810400A20FFF75F
:101230008FBB00000000002000000000010203043A
:10124000646565705F736C6565705F6D6F64650084
:101250007374616E6462795F6D6F646500736C6551
:1012600065706D6F64650000881200080000002042
:1012700008000000F4110008901200080800002087
:10128000A80400000412000800000000007A030A0D
:040000050800018965
:00000001FF
